[
  [
    "from",
    [
      {
        "address": "mszYqVnqKoQx4jcTdJXxwKAissE3Jbrrc1",
        "txId": "a477af6b2667c29670467e4e0728b685ee07b240235771862318e29ddbe58458",
        "outputIndex": 0,
        "script": "OP_DUP OP_HASH160 20 0x88d9931ea73d60eaf7e5671efc0552b912911f2a OP_EQUALVERIFY OP_CHECKSIG",
        "satoshis": 1020000
      }
    ],
    "to",
    ["mrU9pEmAx26HcbKVrABvgL7AwA5fjNFoDc", 1010000],
    "sign",
    ["cSBnVM4xvxarwGQuAfQFwqDg9k5tErHUHzgWsEfD4zdwUasvqRVY", 1],
    "serialize",
    "01000000015884e5db9de218238671572340b207ee85b628074e7e467096c267266baf77a4000000006b483045022100b7cf60ba75a9a5d5c76b8364c52ffaeaee25ec95b5438c7381005d8c596804780220436ae93998364d7141ba39ad2d828eda2838ee0994083a2f837d40da518bf0cb01210223078d2942df62c45621d209fab84ea9a7a23346201b7727b9b45a29c4e76f5effffffff0150690f00000000001976a9147821c0a3768aa9d1a37e16cf76002aef5373f1a888ac0000000000"
  ],
  [
    "from",
    [
      {
        "txid": "e42447187db5a29d6db161661e4bc66d61c3e499690fe5ea47f87b79ca573986",
        "vout": 1,
        "address": "mgBCJAsvzgT2qNNeXsoECg2uPKrUsZ76up",
        "scriptPubKey": "76a914073b7eae2823efa349e3b9155b8a735526463a0f88ac",
        "amount": 0.0108
      }
    ],
    "to",
    ["mn9new5vPYWuVN5m3gUBujfKh1uPQvR9mf", 500000],
    "to",
    ["mw5ctwgEaNRbxkM4JhXH3rp5AyGvTWDZCD", 570000],
    "sign",
    ["cSQUuwwJBAg6tYQhzqqLWW115D1s5KFZDyhCF2ffrnukZxMK6rNZ", 1],
    "serialize",
    "0100000001863957ca797bf847eae50f6999e4c3616dc64b1e6661b16d9da2b57d184724e4010000006a473044022056d1e647ec6aa8ee4036d3cbe89f7050af8497031781cd2e2bc93bd38a4c2962022021a9e52063a3f5246e1ee950d597f8517fd932247070239e1caafb2cdd13f9850121039dd446bbc85db6917f39c0b4c295b0f8cce76d1926fa76d7b84e3f7ff1c5eec5ffffffff0220a10700000000001976a91448c819246ae5645ceecd41fbe1aa6202a0a9b5ca88ac0090b20800000000001976a914aab76ba4877d696590d94ea3e02948b55294815188ac0000000000"
  ],
  [
    "from",
    [
      [
        {
          "txid": "a9db84566e0fc9351e86337d2828ab281b25ddc06fab798f6d4b5baef48c02b3",
          "vout": 0,
          "address": "mn9new5vPYWuVN5m3gUBujfKh1uPQvR9mf",
          "account": "",
          "scriptPubKey": "76a91448c819246ae5645ceecd41fbe1aa6202a0a9b5ca88ac",
          "amount": 0.005,
          "confirmations": 0
        },
        {
          "txid": "a9db84566e0fc9351e86337d2828ab281b25ddc06fab798f6d4b5baef48c02b3",
          "vout": 1,
          "address": "mw5ctwgEaNRbxkM4JhXH3rp5AyGvTWDZCD",
          "account": "",
          "scriptPubKey": "76a914aab76ba4877d696590d94ea3e02948b55294815188ac",
          "amount": 0.0057,
          "confirmations": 0
        }
      ]
    ],
    "to",
    ["mtymcCX5KixPjT1zxtg59qewBGWptj9etH", 1060000],
    "sign",
    [
      [
        "cPGbA2C54ZZ1sw4dc2ckBE1WqkdrNSbEV8Tkjhi2p1J15oErdgP2",
        "cSpyve5bXAuyHrNeV9MjTdFz3HLw739yUjjUAUSMe3ppf2qzj2hw"
      ],
      1
    ],
    "serialize",
    "0100000002b3028cf4ae5b4b6d8f79ab6fc0dd251b28ab28287d33861e35c90f6e5684dba9000000006b48304502210090c2c8c849ec8b7d5505257b5b55fedb4ed8406e37cafe7ceab34acd90108c1f02206ba3c96c281c058a164f3fed02751d781be6b82695ce2877a881946f27c727b20121030253c73236acf5ea9085d408220141197f6094de07426bd0d32c7a543614fdd7ffffffffb3028cf4ae5b4b6d8f79ab6fc0dd251b28ab28287d33861e35c90f6e5684dba9010000006a47304402205eb5bbebc4e493617cb706cbe0112dade9454315a32982ba829a3ad4e10a1a5402200c02dd485a87b2a39981534b953f7ec84cba81cf9533ac0bf9daba82eeff1c2b012102977a001a0a7bbfd1f8a647c7d46e13e8f6920635b328390b43b3303977101149ffffffff01a02c1000000000001976a91493abf1e9e4a20c125b93f93ee39efc16b6e4bc4688ac0000000000"
  ],
  [
    "from",
    [
      {
        "address": "mgJT8iegL4f9NCgQFeFyfvnSw1Yj4M5Woi",
        "txid": "f50e13cecda9a438ebd7df213a2899e42b2461a18d4630ee773d26b4f2688bdc",
        "vout": 1,
        "scriptPubKey": "76a914089acaba6af8b2b4fb4bed3b747ab1e4e60b496588ac",
        "amount": 0.01
      }
    ],
    "to",
    ["n3riXZowrjGnY74rx7Hdi9wCyvgyJC28zZ", 990000],
    "sign",
    ["cPwWtDztEgRCMCU8pMQp4HgphvyadrAsYBrCjXUZuDSmnZkyoyNF", 1],
    "serialize",
    "0100000001dc8b68f2b4263d77ee30468da161242be499283a21dfd7eb38a4a9cdce130ef5010000006b483045022100de7b9696752beac176bc7acf0b4d4ab0862130fdbc4b41fffb46aceb849d248002206d9ce77b1a3c027c7e7a13ee4d73195c5d5c4d015db0397233233e12b3ff2860012103e26b47e7c0d8946954bf9dd4bc7f9e415437eb98271d05f69e78cef8fc6c9a54ffffffff01301b0f00000000001976a914f50f9826ef186074c6fe206cca6b71472ff07ba888ac0000000000"
  ]
]
